:020000040800F2
:100000000000012059160008290300082B030008EE
:100010002D0300082F030008310300080000000032
:100020000000000000000000000000003303000892
:1000300035030008000000003703000839030008FA
:10004000A9160008A9160008A9160008A916000894
:10005000A9160008A9160008A9160008A916000884
:10006000A9160008A9160008A9160008A916000874
:10007000A9160008A9160008A9160008A916000864
:10008000A9160008A9160008A9160008000000001B
:10009000000000000000000000000000A916000899
:1000A000A9160008A9160008A9160008A916000834
:1000B000A9160008A9160008A9160008A916000824
:1000C000A9160008A9160008A9160008A916000814
:1000D000A916000841030008A91600080000000046
:1000E000A9160008A9160008A916000800000000BB
:1000F000000000000000000000000000A916000839
:1001000000000000A9160008A9160008A91600089A
:1001100000000000000000000000000000000000DF
:10012000A9160008A9160008A9160008A9160008B3
:10013000A9160008000000000000000000000000F8
:10014000000000000000000000000000A9160008E8
:10015000A9160008A9160008A9160008A916000883
:10016000A9160008A9160008000000000000000001
:10017000000000000000000000000000000000007F
:1001800000000000A91600080000000000000000A8
:04019000A9160008A4
:1001940053B94AB9002908BF00281CBF4FF0FF31EA
:1001A4004FF0FF3000F00CB8ADF1080C6DE904CE4F
:1001B40001F080FFDDF804E0DDE9022304B07047BC
:1001C400704700BF0348044B834202D0034B03B182
:1001D40018477047700000207000002000000000E5
:1001E4000548064B1B1AD90F01EBA301491002D095
:1001F400034B03B1184770477000002070000020C3
:100204000000000010B5064C237843B9FFF7DAFF6D
:10021400044B13B10448AFF300800123237010BDD5
:1002240070000020000000008023000808B5054B82
:100234001BB105490548AFF30080BDE80840FFF74E
:10024400CFBF00BF0000000074000020802300081E
:1002540072B6FEE700B595B03022002108A801F07F
:1002640047FA00230393049305930693079301939A
:10027400204A116C41F080511164126C02F08052DA
:100284000192019A02931C4A136823F4404343F4F5
:1002940000431360136803F440430293029B012359
:1002A40008934FF48033099302230E934FF4800292
:1002B4000F9219221092A8221192129304231393DD
:1002C40008A800F0EDFB80B90F23039302210491E9
:1002D400002305934FF480520692079303A800F07D
:1002E4002FFE20B915B05DF804FBFFF7B1FFFFF74F
:1002F400AFFF00BF003802400070004008B501F0B5
:10030400C9F8FFF7A7FF01F00FF901F03DF94FF429
:100314007A7001F0EBF8024801F04EFAF7E700BFFB
:1003240098230008FEE7FEE7FEE7FEE7FEE77047D6
:100334007047704708B501F0C7F808BD08B5024812
:1003440000F06EFA08BD00BF9000002082B00021CA
:1003540000910B4B5A6C42F480425A645A6C02F47A
:1003640080420092009A01911A6C42F080521A6401
:100374001B6C03F080530193019B02B0704700BFD4
:1003840000380240026802F10C0353E8003F23F4F2
:1003940090730C3242E800310029F3D1026802F173
:1003A400140353E8003F23F00103143242E8003100
:1003B4000029F3D1036B012B05D0202380F83E30B4
:1003C400002303637047026802F10C0353E8003F03
:1003D40023F010030C3242E800310029F3D1ECE79A
:1003E40090F83D30DBB2212B01D0022070478368A6
:1003F400B3F5805F17D0036A5A1C02621A78036847
:100404005A60C38C9BB2013B9BB2C3844BB9026854
:10041400D36823F08003D3600268D36843F04003B9
:10042400D360002070470369002BE4D1036A1B8862
:100434000268C3F308035360036A02330362E0E70C
:1004440010B504460268136923F44053C1680B4392
:100454001361836802691A4343691A43C3691A43DF
:100464000168CB6823F4164323F00C031343CB60D9
:100474000268536923F4407381690B435361036831
:10048400314A934206D002F58062934202D000F0D2
:100494000DFE01E000F01AFEE369B3F5004F29D028
:1004A4000021031849411B1841F10001C90041EA28
:1004B4005371DB00181863684FEA83024FEA9373A1
:1004C40041F10001FFF764FE204AA2FB0031490913
:1004D400642303FB11031B013233A2FB03235B09D7
:1004E40003F0F00202EB011203F00F03216813443E
:1004F4008B6010BD0023021843EB0301121841F175
:100504000001C90041EA5271D200101841F1000102
:10051400626892185B41FFF73BFE0C4AA2FB003174
:100524004909642303FB1103DB003233A2FB0323D9
:100534005B095A0002F4F87202EB011203F007039C
:10054400216813448B60D4E7001001401F85EB51F0
:100554002DE9F84305460F4616469946DDF82080F6
:100564002B681C6837EA04040CBF01240024B4423D
:100574002DD1B8F1FF3FF3D0B8F1000F05D000F052
:10058400AFFFA0EB09004045EAD92A6802F10C0349
:1005940053E8003F23F4D0730C3242E800310029C1
:1005A400F3D12A6802F1140353E8003F23F0010356
:1005B400143242E800310029F3D1202385F83D307C
:1005C40085F83E30002385F83C30032000E000200D
:1005D400BDE8F88358B310B5044690F83D300BB32A
:1005E400242384F83D302268D36823F40053D36075
:1005F4002046FFF725FF2268136923F49043136113
:100604002268536923F02A0353612268D36843F4B0
:100614000053D36000202064202384F83D3084F804
:100624003E3010BD80F83C3000F0C8FFD8E7012010
:1006340070472DE9F04182B01E4690F83D30DBB2A0
:10064400202B54D104460D469046002953D0002A4D
:1006540053D090F83C30012B51D0012380F83C302A
:1006640000230364212380F83D3000F039FF07465E
:10067400A4F82480A4F82680A368B3F5805F05D08D
:100684004FF00008002384F83C3012E0236913B1D2
:100694004FF00008F6E7A8460025F3E738F8023BD8
:1006A4002268C3F308035360E28C92B2013A92B217
:1006B400E284E38C9BB273B100963B460022802116
:1006C4002046FFF745FFE0B9002DE7D015F8012BD0
:1006D40023685A60E8E700963B4600224021204602
:1006E400FFF736FF78B9202384F83D3000E002207C
:1006F40002B0BDE8F0810120FAE70120F8E702200A
:10070400F6E70320F4E70320F2E7704708B5016831
:10071400CA6822F04002CA60202280F83D20FFF718
:10072400F4FF002008BD7047704708B5806B0023B4
:10073400C385C384FFF7F8FF08BD704790F83E30C7
:10074400DBB2222B67D18368B3F5805F4DD0826A18
:10075400B3F5805F04D0002B54D10369002B51D131
:1007640003685B681370836A01338362C38D9BB231
:10077400013B9BB2C385002B4FD100B583B0026807
:10078400D36823F02003D3600268D36823F4807312
:10079400D3600268536923F001035361202380F876
:1007A4003E30036B012B33D100230363026802F153
:1007B4000C0353E8003F23F010030C3242E80031ED
:1007C4000029F3D103681A6812F0100F06D0002232
:1007D40001921A6801925B680193019B818DFFF776
:1007E400ACFF002003B05DF804FB0269002AAED11F
:1007F400826A03685B68C3F308031380836A023365
:100804008362B3E703685B6803F07F031370AAE7AE
:10081400FFF789FFE5E702207047002070470000DA
:1008240030B583B0044602681368D068516913F088
:100834000F0505D113F0200F02D010F0200F19D1AD
:100844002DB111F0010119D110F4907F16D1216B53
:1008540001297DD013F0800F03D010F0800F40F0F9
:10086400158113F0400F03D010F0400F40F01281B7
:1008740003B030BD2046FFF761FFF9E713F0010F25
:1008840006D010F4807F03D0226C42F0010222646F
:1008940013F0040F04D019B1226C42F00202226456
:1008A40013F0020F04D019B1226C42F00402226446
:1008B40013F0080F07D010F0200F00D119B1226CEB
:1008C40042F008022264226C002AD1D013F0200FD7
:1008D40002D010F0200F29D123685B6903F0400394
:1008E400226C12F0080F00D163B32046FFF74AFDD3
:1008F40023685B6913F0400F20D0226802F11403CF
:1009040053E8003F23F04003143242E80031002949
:10091400F3D1A36B73B1614A1A65A06B00F014FDA7
:100924000028A5D0A06B036D9847A1E72046FFF7E8
:1009340005FFD1E72046FFF7F7FE99E72046FFF7CA
:10094400F3FE95E72046FFF7EFFE002323648FE7CD
:1009540013F0100F3FF47EAF10F0100F3FF47AAF96
:10096400002301931368019353680193019B536916
:1009740013F0400F50D0A26B13685B689BB2002B3E
:100984003FF476AFA18D99427FF672AFE385D369C8
:10099400B3F5807F37D0226802F10C0353E8003F9F
:1009A40023F480730C3242E800310029F3D1226829
:1009B40002F1140353E8003F23F00103143242E828
:1009C40000310029F3D1226802F1140353E8003FF7
:1009D40023F04003143242E800310029F3D12023EC
:1009E40084F83E3000232363226802F10C0353E8A9
:1009F400003F23F010030C3242E800310029F3D108
:100A0400A06B00F057FCA18DE38D9BB2C91A89B28B
:100A14002046FFF792FE2BE7A18DE38D9BB2C91A06
:100A240089B2E38D9BB2002B3FF422AF00293FF43F
:100A34001FAF226802F10C0353E8003F23F49073C4
:100A44000C3242E800300028F3D1226802F114038A
:100A540053E8003F23F00103143242E80030002839
:100A6400F3D1202384F83E3000232363226802F16B
:100A74000C0353E8003F23F010030C3242E800302B
:100A84000028F3D12046FFF758FEF1E62046FFF791
:100A9400A7FCEDE62046FFF739FEE9E62F0700083C
:100AA400002800F0E08170B582B00446036813F0BA
:100AB400010F3BD09F4B9B6803F00C03042B2CD0FD
:100AC4009C4B9B6803F00C03082B21D06368B3F59F
:100AD400803F4FD0B3F5A02F52D0964B1A6822F422
:100AE40080321A601A6822F480221A606368002B2C
:100AF40050D000F0F5FC05468E4B1B6813F4003F04
:100B040014D100F0EDFC401B6428F5D90320B1E1B9
:100B1400884B5B6813F4800FD8D0864B1B6813F4A2
:100B2400003F03D06368002B00F09F81236813F01B
:100B3400020F54D07F4B9B6813F00C0F3ED07D4BBB
:100B44009B6803F00C03082B33D0E368002B68D0B8
:100B5400794B01221A6000F0C3FC0546754B1B68F3
:100B640013F0020F54D100F0BBFC401B0228F5D94E
:100B740003207FE16F4A136843F480331360B5E7C1
:100B84006C4B1A6842F480221A601A6842F480326C
:100B94001A60ABE700F0A4FC0546664B1B6813F42F
:100BA400003FC3D000F09CFC401B6428F5D903200F
:100BB40060E1604B5B6813F4800FC6D15D4B1B682A
:100BC40013F0020F03D0E368012B40F05081594A1F
:100BD400136823F0F803216943EAC103136023680F
:100BE40013F0080F42D063696BB3534B0122C3F86F
:100BF400802E00F075FC05464E4B5B6F13F0020F20
:100C040034D100F06DFC401B0228F5D9032031E1FA
:100C1400484A136823F0F803216943EAC1031360C7
:100C2400DDE7454B00221A6000F05AFC0546414BB3
:100C34001B6813F0020FD2D000F052FC401B0228B4
:100C4400F5D9032016E13C4B0022C3F8802E00F0B6
:100C540047FC0546374B5B6F13F0020F06D000F0DC
:100C64003FFC401B0228F5D9032003E1236813F05D
:100C7400040F77D02F4B1B6C13F0805F33D100230C
:100C840001932C4B1A6C42F080521A641B6C03F0D3
:100C940080530193019B0125284B1B6813F4807F2B
:100CA40023D0A368012B34D0052B38D0214B1A6FE5
:100CB40022F001021A671A6F22F004021A67A3686D
:100CC400002B3DD000F00CFC06461A4B1B6F13F0B2
:100CD400020F46D100F004FC801B41F28833984295
:100CE400F3D90320C6E00025D6E7144A136843F479
:100CF4008073136000F0F4FB0646104B1B6813F47A
:100D0400807FCED100F0ECFB801B0228F5D90320B4
:100D1400B0E0084A136F43F001031367CFE7054BB4
:100D24001A6F42F004021A671A6F42F001021A673E
:100D3400C5E700BF00380240000047420070004091
:100D440000F0CEFB0646524B1B6F13F0020F08D087
:100D540000F0C6FB801B41F288339842F3D903208C
:100D640088E0EDB9A369002B00F08380484A9268BB
:100D740002F00C02082A51D0022B17D0454B002256
:100D84001A6600F0ADFB0446414B1B6813F0007F6C
:100D940042D000F0A5FB001B0228F5D9032069E02E
:100DA4003B4A136C23F080531364DBE7394B002276
:100DB4001A6600F095FB0546354B1B6813F0007F5F
:100DC40006D000F08DFB401B0228F5D9032051E02A
:100DD400E369226A1343626A43EA8213A26A5208ED
:100DE400013A43EA0243E26A43EA0263284A53604F
:100DF400284B01221A6600F073FB0446244B1B683F
:100E040013F0007F06D100F06BFB001B0228F5D91C
:100E140003202FE000202DE000202BE0012B2BD01D
:100E24001B4B5B6803F48001E269914226D103F015
:100E34003F02216A8A4223D1616A47F6C0721A408E
:100E4400B2EB811F1ED103F44031A26A5208013A69
:100E5400B1EB024F18D103F07063E26AB3EB026F97
:100E640014D1002006E001207047012002E0012097
:100E740000E0002002B070BD0120FBE70120F9E78B
:100E84000120F7E70120F5E70120F3E70120F1E76E
:100E9400003802400000474208B5264B9B6803F027
:100EA4000C03042B41D0082B41D1224B5A6802F089
:100EB4003F025B6813F4800F12D01E4B5968C1F3D4
:100EC40088111D480023A1FB0001FFF761F9194BAC
:100ED4005B68C3F3014301335B00B0FBF3F027E02D
:100EE400144B5868C0F388104FEA401CBCEB000C4C
:100EF4006EEB0E0E4FEA8E1343EA9C634FEA8C119D
:100F0400B1EB0C0163EB0E03DB0043EA5173C90040
:100F140011EB000C43F10003990200234FEA8C20EB
:100F240041EA9C51FFF734F9D1E7034800E0034854
:100F340008BD00BF0038024040787D010024F40061
:100F4400002800F09B8070B50D4604464F4B1B688B
:100F540003F007038B4208D2CBB24C4A13701368D8
:100F640003F007038B4240F08B80236813F0020FD9
:100F740017D013F0040F04D0454A936843F4E053A8
:100F84009360236813F0080F04D0414A936843F434
:100F9400604393603E4A936823F0F003A1680B43D7
:100FA4009360236813F0010F32D06368012B21D0C2
:100FB4009A1E012A25D9364A126812F0020F61D00E
:100FC40033498A6822F0030213438B6000F088FAE5
:100FD40006462F4B9B6803F00C036268B3EB820F49
:100FE40016D000F07DFA801B41F288339842F0D984
:100FF400032042E0264A126812F4003FE0D10120A7
:101004003BE0234A126812F0007FD9D1012034E07A
:101014001E4B1B6803F00703AB4207D9EAB21B4B14
:101024001A701B6803F00703AB422DD1236813F039
:10103400040F06D0164A936823F4E053E1680B4387
:101044009360236813F0080F07D0114A936823F4C0
:101054006043216943EAC1039360FFF71DFF0C4B12
:101064009B68C3F303130B4AD35CD8400A4B186044
:101074000A4B186800F0E8F9002070BD01207047A1
:101084000120FAE70120F8E70120F6E7003C0240DE
:1010940000380240A02300080800002004000020BB
:1010A400014B1868704700BF0800002008B5FFF71F
:1010B400F7FF044B9B68C3F38223034AD35CD840F5
:1010C40008BD00BF00380240B023000808B5FFF790
:1010D400E7FF044B9B68C3F34233034AD35CD84015
:1010E40008BD00BF00380240B023000800230F2BC6
:1010F40000F2D78070B582B065E085684FEA430E90
:10110400032404FA0EF425EA0405CC6804FA0EF468
:101114002C438460446824EA02044A68C2F300123F
:101124009A40224342605CE0DC08083450F82420F2
:1011340003F00705AD004FF00F0E0EFA05FE22EA8C
:101144000E0E0A69AA4042EA0E0240F824205CE02E
:10115400042200E0002202FA0EF22A430234514D26
:1011640045F82420504A94686FEA0C0224EA0C05DE
:101174004E6816F4801F01D04CEA04054A4CA56061
:10118400E46802EA04054E6816F4001F01D04CEA34
:101194000405454CE560646802EA04054E6816F4EB
:1011A400003F01D04CEA04053F4C656024682240AE
:1011B4004D6815F4803F01D04CEA04023A4C226099
:1011C40001330F2B6BD801229A400C6804EA020CFD
:1011D40032EA0404F4D14C6804F00304013C012C09
:1011E4008BD94A6802F00302032A09D0C4685D005F
:1011F4000322AA4024EA02048A68AA402243C26065
:101204004A6802F00302022A8ED004684FEA430EB1
:10121400032202FA0EF224EA02044A6802F00302EC
:1012240002FA0EF2224302604A6812F4403FC7D029
:10123400002201921D4A546C44F480445464526C5C
:1012440002F480420192019A9C08A51C154A52F8A6
:10125400255003F0030E4FEA8E0E0F2202FA0EF20F
:1012640025EA0205124A90423FF474AF02F5806207
:1012740090420ED002F5806290420CD002F580625A
:1012840090420AD002F5806290423FF461AF072297
:1012940061E701225FE702225DE703225BE702B018
:1012A40070BD704700380140003C014000380240E6
:1012B4000000024070B50446866D00F011F994F800
:1012C4003530DBB2022B06D080236365002384F81B
:1012D4003430012070BD05462268136823F01603DC
:1012E40013602268536923F080035361236CE3B1D4
:1012F4002268136823F0080313602268136823F03C
:101304000103136023681B6813F0010F11D000F070
:10131400E7F8431B052BF5D920236365032084F8E4
:101324003500002384F83430D4E7A36C002BDFD1DC
:10133400E3E7E26D3F239340B360012384F8353043
:10134400002084F83400C5E790F83530DBB2022B76
:1013540003D08023436501207047052380F835308E
:101364000268136823F00103136000207047000033
:10137400074AD36823F4E0631B041B0C000200F447
:10138400E060034343F0BF6343F40033D36070472A
:1013940000ED00E000B5194BDB68C3F30223C3F191
:1013A400070CBCF1040F28BF4FF0040C03F1040E2A
:1013B400BEF1060F18D9033B4FF0FF3E0EFA0CFCAA
:1013C40021EA0C0199400EFA03FE22EA0E020A43B6
:1013D40000280BDB1201D2B200F1604000F561403D
:1013E40080F800235DF804FB0023E5E700F00F001C
:1013F4001201D2B2024B1A54F4E700BF00ED00E030
:1014040014ED00E0002807DB00F01F02400901236F
:101414009340024A42F82030704700BF00E100E0E8
:101424000138B0F1807F0BD24FF0E0235861054AB8
:10143400F02182F823100020986107221A61704776
:101444000120704700ED00E010B504460E4B1A78F9
:101454004FF47A73B3FBF2F30C4A1068B0FBF3F069
:10146400FFF7DEFF68B90F2C01D901200AE0002242
:1014740021464FF0FF30FFF78DFF054B1C60002025
:1014840000E0012010BD00BF000000200800002083
:101494000400002008B50B4B1A6842F400721A606D
:1014A4001A6842F480621A601A6842F480721A6000
:1014B4000320FFF75DFF0F20FFF7C6FFFEF746FF8F
:1014C400002008BD003C0240034A1168034B1B780E
:1014D4000B441360704700BF8C0000200000002004
:1014E400014B1868704700BF8C00002038B50446D3
:1014F400FFF7F6FF0546B4F1FF3F02D0044B1B781B
:101504001C44FFF7EDFF401BA042FAD338BD00BFD7
:1015140000000020034AD2F8883043F47003C2F874
:101524008830704700ED00E084B000220092154B33
:10153400196B41F004011963196B01F00401009166
:1015440000990192196B41F080011963196B01F044
:101554008001019101990292196B41F00101196313
:10156400196B01F001010291029903921A6B42F086
:1015740002021A631B6B03F002030393039B04B080
:10158400704700BF0038024008B50A480A4B0360A0
:101594004FF4E133436000238360C36003610C2292
:1015A40042618361C361FFF715F800B908BDFEF716
:1015B4004FFEFBE7900000200010014010B588B0FA
:1015C400002303930493059306930793026803F19E
:1015D400804303F588339A4201D008B010BD00243B
:1015E400019403F594335A6C42F010025A645A6C15
:1015F40002F010020192019A02941A6B42F0010265
:101604001A631B6B03F001030293029B4FF4C06344
:10161400039302230493032306930723079303A945
:101624000548FFF763FD224621462520FFF7B2FE59
:101634002520FFF7E7FED0E70000024010B514466E
:101644004FF0FF3392B20248FEF7F3FF204610BD7D
:1016540090000020DFF834D00D480E490E4A0023D4
:1016640002E0D458C4500433C4188C42F9D30B4A52
:101674000B4C002301E013600432A242FBD3FFF7BA
:1016840049FF00F011F8FEF739FE70470000012011
:1016940000000020700000202C24000870000020AE
:1016A400E4000020FEE7000070B50D4D0D4C641BF6
:1016B400A4100026A64209D10B4D0C4C00F05EFE8E
:1016C400641BA4100026A64205D170BD55F8043B46
:1016D40098470136EEE755F8043B98470136F2E7A0
:1016E40024240008242400082424000828240008B2
:1016F40002440346934200D1704703F8011BF9E703
:1017040070B50E46054618B183690BB900F00CFAA2
:10171400AB69AC6813B9284600F006FA234B9C4227
:1017240017D16C68A3891B071DD52369DBB1013E62
:10173400A36816F8011F013BA360E9B9002B2EDA58
:1017440022460A21284600F03FF8013011D00A2031
:1017540011E0174B9C4201D1AC68E3E7154B9C4266
:1017640008BFEC68DEE72146284600F07FF8002831
:10177400DDD04FF0FF3070BD002B04DAA2699A422D
:1017840006DC0A2904D023685A1C22601970CFE7AA
:101794002246284600F018F80130C9D1E9E7236849
:1017A4000A205A1C22601870E5E700BFDC230008F9
:1017B400FC230008BC230008024B01461868FFF70D
:1017C4009FBF00BF0C000020F8B50E461446054626
:1017D40018B183690BB900F0A7F9214B9C422BD1B6
:1017E4006C68A369A360A3891A072FD523696BB317
:1017F40023692068C01A6369F6B28342374604DC61
:101804002146284600F026F930BBA368013BA360BB
:1018140023685A1C22601E7063690130834204D01D
:10182400A389DB0706D50A2E04D12146284600F0F9
:1018340011F988B93846F8BD0A4B9C4201D1AC680D
:10184400CFE7094B9C4208BFEC68CAE7214628460B
:1018540000F00CF80028CBD04FF0FF37EAE700BFC8
:10186400DC230008FC230008BC230008324B70B5BD
:101874001D6806460C4625B1AB6913B9284600F02D
:1018840053F92E4B9C420FD16C68A389B4F90C20F8
:1018940019072CD4DD0611D40923336042F0400328
:1018A400A3814FF0FF303EE0254B9C4201D1AC6850
:1018B400EBE7244B9C4208BFEC68E6E7580712D5D7
:1018C400616B41B104F14403994202D0304600F007
:1018D4001DFA00236363A38923F02403A381002357
:1018E400636023692360A38943F00803A381236908
:1018F4004BB9A38903F42073B3F5007F03D02146C9
:10190400304600F0C3F9A089B4F90C2010F00103AB
:101914000AD00023A36063695B42A361236943B9CE
:1019240010F08000BAD170BD810758BF6369A3600D
:10193400F4E70020F7E700BF0C000020DC230008D8
:10194400FC230008BC2300088A892DE9F0410546E0
:1019540010070C4658D44B68002B05DC0B6C002B8D
:1019640002DC0020BDE8F081E66A002EF9D00023F5
:1019740012F480522F68216A2B6032D0606DA389E3
:101984005A0705D56368C01A636B0BB1236CC01A80
:1019940000230246E66A216A2846B047431CA3890D
:1019A40006D129681D292BD8294A0A41D60727D4EC
:1019B40000226260D9042269226004D5421C01D14C
:1019C4002B6803B96065616B2F600029C9D004F1ED
:1019D4004403994202D0284600F098F9002060633D
:1019E400C0E701232846B047411CC8D12B68002B0F
:1019F400C5D01D2B01D0162B01D12F60B1E7A389CF
:101A040043F04003A381ADE70F69002FA9D09307EA
:101A14000E6808BF4B690F6018BF0023A6EB0708C8
:101A24008B60B8F1000F9CDD216AA66A43463A46F2
:101A34002846B047002806DCA38943F04003A3816D
:101A44004FF0FF308EE70744A8EB0008E9E700BF3A
:101A5400FEFFBFDF38B50B6905460C46DBB118B194
:101A640083690BB900F060F80C4B9C4209D16C6897
:101A7400B4F90C307BB121462846BDE83840FFF765
:101A840063BF074B9C4201D1AC68F1E7054B9C4214
:101A940008BFEC68ECE7002038BD00BFDC23000879
:101AA400FC230008BC230008002310B50446C0E949
:101AB4000033C0E90433836081814366C28183615A
:101AC400194608225C30FFF713FE054B6362054B91
:101AD400A362054BE362054B2462236310BD00BF80
:101AE400F11E0008131F00084B1F00086F1F000899
:101AF400014900F085B800BF591A000870B5682381
:101B04004D1E5D430E4605F1740100F06BF9044669
:101B140040B10021C0E900160C30A06005F1680254
:101B2400FFF7E6FD204670BD836910B5044633BB5C
:101B3400C0E912330365124B124A1B688262984251
:101B440004BF0123836100F01FF86060204600F0A9
:101B54001BF8A060204600F017F80022E060042182
:101B64006068FFF7A1FFA06801220921FFF79CFF2D
:101B7400E06802221221FFF797FF0123A36110BD41
:101B8400B8230008F51A0008F8B51B4B1E68B369A2
:101B9400074613B93046FFF7C7FF4836D6E9013484
:101BA400013B03D53368DBB13668F7E7B4F90C5071
:101BB400A5B9124B6566C4E90055C4E90335C4E907
:101BC4000555A5600822294604F15C00FFF790FD45
:101BD400C4E90D55C4E912552046F8BD6834DFE761
:101BE40004213846FFF78AFF044630600028DBD121
:101BF4000C233B60F0E700BFB82300080100FFFF9F
:101C04002DE9F8430646884600F148040027D4E944
:101C14000195B9F1010905D52468002CF7D138469E
:101C2400BDE8F883AB89012B07D9B5F90E30013330
:101C340003D029463046C04707436835E9E770B505
:101C44000C46B1F90E10002996B015461E460DDA61
:101C5400A38913F0800F4FF000010CBF4FF4806391
:101C64004023002031602B6016B070BD6A4600F03E
:101C7400A3F90028ECDB019901F47041A1F50053AC
:101C8400594259414FF48063EBE700008B8973B5E7
:101C94009D0706460C4607D504F1470323602361DC
:101CA4000123636102B070BD01AB6A46FFF7C7FF51
:101CB40000990546304600F095F848B9B4F90C305F
:101CC4009A05EFD423F0030343F00203A381E3E76F
:101CD4000D4BB362A389206043F08003A381009B72
:101CE4006361019B20615BB1B4F90E10304600F0D2
:101CF40075F928B1A38923F0030343F00103A381F9
:101D0400A3891D43A581CDE7F51A000837B500293D
:101D140044D051F8043C0190002BA1F10404B8BF55
:101D2400E41800F07DF91E4A0198136833B9636022
:101D3400146003B0BDE8304000F073B9A34208D981
:101D4400256861198B4201BF19685B6849192160D4
:101D5400EDE71A465B680BB1A342FAD9116855182E
:101D6400A5420BD1246821445418A3421160E0D148
:101D74001C685B6853600C441460DAE702D90C23D6
:101D84000360D6E7256861198B4204BF19685B6854
:101D9400636004BF491921605460CAE703B030BDD1
:101DA400D400002070B50E4E0C463168054611B9BA
:101DB40000F08CF830602146284600F087F8431C78
:101DC4000AD0C41C24F00304A04207D0211A2846D8
:101DD40000F07CF8013001D14FF0FF34204670BD93
:101DE400D80000202DE9F041CD1C25F0030508356D
:101DF4000C2D38BF0C25002D074601DBA94205D95F
:101E04000C233B6000263046BDE8F0812E4E00F0E6
:101E140007F933681C4634BB29463846FFF7C2FF2E
:101E2400431C04464DD134682646002E40D1236815
:101E34003146384604EB030800F048F880453AD1AF
:101E440023680335ED1A25F0030508350C2D38BF3A
:101E54000C2529463846FFF7A5FF01302BD023680F
:101E64002B4423600EE02268521B1ED40B2A16D981
:101E74006119A342256018BF5960636808BF3160C7
:101E840062514B60384604F10B0600F0CAF826F0A4
:101E94000706231DF21AB6D09B1BA350B3E7626852
:101EA400A3420CBF32605A60ECE723466468B2E791
:101EB40034467668B9E70C233B60384600F0B1F845
:101EC400A1E72560DEE700BFD400002038B5064D49
:101ED4000023044608462B6000F0DEF8431C02D1C0
:101EE4002B6803B1236038BDDC00002010B50C461C
:101EF400B1F90E1000F096F80028ABBF636DA3890A
:101F04001B1823F48053ACBF6365A38110BD2DE976
:101F1400F0411F468B89DB0505460C46164605D560
:101F2400B1F90E100223002200F068F8A389B4F975
:101F34000E1023F48053A38132463B462846BDE865
:101F4400F04100F017B810B50C46B1F90E1000F0CE
:101F540055F8431CA38915BF606523F4805343F4EB
:101F64008053A38118BFA38110BDB1F90E1000F0F6
:101F740013B8000038B5074D044608461146002240
:101F84002A601A46FFF75AFB431C02D12B6803B19F
:101F9400236038BDDC00002038B5064D002304461C
:101FA40008462B6000F050F8431C02D12B6803B1A3
:101FB400236038BDDC00002038B5074D00230446FB
:101FC400084611462B6000F047F8431C02D12B68E9
:101FD40003B1236038BD00BFDC00002038B5064DD6
:101FE4000023044608462B6000F03EF8431C02D14F
:101FF4002B6803B1236038BDDC00002038B5074DE1
:1020040004460846114600222A601A4600F034F8B5
:10201400431C02D12B6803B1236038BDDC000020CF
:102024007047704738B5074D0446084611460022EC
:102034002A601A4600F028F8431C02D12B6803B129
:10204400236038BDDC000020024B58221A604FF098
:10205400FF307047DC000020024B58221A604FF01A
:10206400FF307047DC000020024B58221A60002029
:10207400704700BFDC000020024B58221A604FF06A
:10208400FF307047DC000020024B58221A604FF0EA
:10209400FF307047DC000020044A05491368002B18
:1020A40008BF0B461844106018467047E000002033
:1020B400E80000202DE9F047089E0D4604460F462F
:1020C400002B4AD18A42944665D9B2FA82F343B1CD
:1020D40002FA03FCC3F120029F4020FA02F21743E4
:1020E4009C404FEA1C4E1FFA8CF5B7FBFEF1220C04
:1020F4000EFB117742EA074201FB05F090420AD930
:102104001CEB020201F1FF3780F01C81904240F287
:10211400198102396244121AA4B2B2FBFEF00EFB1A
:10212400102244EA024400FB05F5A5420AD91CEB3F
:10213400040400F1FF3280F00781A54240F20481DB
:102144006444023840EA0140641B00211EB1DC40B3
:102154000023C6E90043BDE8F0878B4208D9002E6E
:1021640000F0ED800021C6E900050846BDE8F087CF
:10217400B3FA83F1002949D1AB4202D3824200F27F
:10218400F880841A65EB030201201746002EE2D082
:10219400C6E90047DFE702B9FFDEB2FA82F3002B9B
:1021A40040F090808A1A4FEA1C471FFA8CFE0121E6
:1021B400B2FBF7F507FB1520220C42EA00420EFBA6
:1021C40005F0904208D91CEB020205F1FF3802D257
:1021D400904200F2CB804546121AA4B2B2FBF7F04B
:1021E40007FB102244EA02440EFB00FEA64508D970
:1021F4001CEB040400F1FF3202D2A64500F2BB80BE
:102204001046A4EB0E0440EA05409FE7C1F1200705
:102214008B4022FA07FC4CEA030C05FA01F420FA7D
:1022240007F3FD404FEA1C492343B5FBF9F81FFAB5
:102234008CFE09FB18551C0C44EA054408FB0EF5FA
:10224400A54202FA01F200FA01F00BD91CEB0404D6
:1022540008F1FF3A80F08880A54240F28580A8F119
:1022640002086444641B9DB2B4FBF9F309FB1344F4
:1022740045EA044403FB0EFEA64508D91CEB0404FE
:1022840003F1FF356CD2A6456AD9023B644443EAA4
:102294000843A3FB0295A4EB0E04AC42C846AE4629
:1022A40056D353D056B1B0EB080264EB0E0404FAD3
:1022B40007F7CA40CC401743C6E90074184600210A
:1022C400BDE8F087C3F1200102FA03FC20FA01F211
:1022D40025FA01F19D402A434FEA1C471FFA8CFE60
:1022E400B1FBF7F007FB1015110C41EA054100FBA7
:1022F4000EF58D4204FA03F408D91CEB010100F138
:10230400FF382FD28D422DD902386144491B92B235
:10231400B1FBF7F507FB151142EA014205FB0EF18B
:10232400914208D91CEB020205F1FF3816D2914202
:1023340014D9023D6244521A45EA004138E7314655
:10234400304608E73946E6E61046FBE64845A9D29A
:10235400B9EB020865EB0C0E013BA3E74546EAE73F
:102364002B4694E74046D1E7D0467BE7023D6244E2
:1023740032E708460AE76444023842E7F8B500BF8A
:10238400F8BC08BC9E467047F8B500BFF8BC08BC52
:042394009E467047AA
:102398007465737400000000000000000000000075
:1023A80001020304060708090000000001020304F3
:1023B80010000020000000000000000000000000E5
:1023C8000000000000000000000000000000000005
:1023D80000000000000000000000000000000000F5
:1023E80000000000000000000000000000000000E5
:1023F80000000000000000000000000000000000D5
:1024080000000000000000000000000000000000C4
:0424180000000000C0
:08241C009CFCFF7F01000000A1
:042424003102000879
:04242800090200089D
:10242C0001000000100000000024F4001000002047
:10243C0000000000DC230008FC230008BC2300087B
:10244C000000000000000000000000000000000080
:10245C000000000000000000000000000000000070
:10246C000000000000000000000000000000000060
:10247C000000000000000000000000000000000050
:10248C000000000000000000000000000000000040
:040000050800165980
:00000001FF
